:1004B500D2B4D2B775A0FFC2B6C2B5C2B5C2B5AE89
:0804C500A08E07D2B5D2B622C9
:1004CD00D2B4C2B775A0FFC2B6C2B5C2B5C2B5AE81
:0804DD00A08E07D2B5D2B622B1
:0204E5008F0581
:1004E7001204B5EF5403640370F6D2B5C2B78DA0FA
:0E04F700C2B6C2B4C2B4D2B4D2B675A0FF224F
:020505008F0560
:100507001204B5EF5403640370F6D2B5D2B78DA0C9
:0E051700C2B6C2B4C2B4D2B4D2B675A0FF222E
:10052500D2B6C2B7D2B5D2B4C2807F80120505E477
:10053500FF1204E57F0C1204E57F421205057F14C6
:100545001204E5E4FF1204E57F43120505E4FF12FA
:1005550004E5E4FF1204E57F401205057F1412044B
:0C056500E5E4FF1204E57F4112050522C9
:0F0571008F51EF24E0FF1204E57FC01205052231
:100580008B178A188919AB17AA18A919120370605A
:010590001159
:10059100120370FF1205710519E51970E80518803D
:0205A100E42252
:1005A3008F518D5275F014E551A42552F554E4355D
:1005B300F0F553AF541204E5AF531204E57F241250
:0305C30005052209
:0305C600300732C9
:1005C900750D0CE4FFF50E1204E57F0C1204E57FAE
:0D05D90024120505E50DB41802E50E5014BE
:1005E600E4FF1204E57FC0120505050EE50E70E76F
:0505F600050D80E32269
:1005FB00E4FFF50DF50E1204E5E4FF1204E57F248C
:0C060B00120505E50DB40C02E50E5014BC
:10061700E4FF1204E57FC0120505050EE50E70E73D
:05062700050D80E32237
:10062C008F178D1875F014E517A42400FBE5F03432
:10063C000CFAE518030303541FFFEB2FF51AE43AE9
:10064C00F519AF1A1204E5AF191204E57F2412054F
:10065C0005300910E5185407FA7407C39A44F8FFDB
:10066C0012050522E5185407FA7407C39A44F0FFE3
:04067C00120505223C
:100680008F088D0975F014E508A42400FBE5F0340B
:100690000CFAE509030303541FFFEB2FF50BE43AB3
:1006A000F50AAF0B1204E5AF0A1204E57F24120528
:0206B000052221
:0B0006008F0C1204E57FC012050522DC
:0A06B2008F0E8D0F8B10EFB5031AA9
:1006BC008D11E511B50D01D3500FA2079209AF0EA4
:0F06CC00AD1112062C051180E922E50FB50D1BAB
:1006DB00850E11E511B51001D3500FA2079209AF8A
:0B06EB0011AD0F12062C051180E92252
:1006F600850F11E511B50D01D3500FA2079209AF71
:100706000EAD1112062C051180E9850E11E511B505
:100716001001D3500FA2079209AF11AD0D12062C8E
:10072600051180E9850F11E511B50D01D3500FA212
:10073600079209AF10AD1112062C051180E9850E3E
:1007460011E511B51001D3500FA2079209AF11ADF3
:090756000F12062C051180E922A6
:10075F008C178D188E198F1A751B3B751C9A751D6A
:0C076F00CAE4F51EC208EC4D4E4F700F9E
:10077B003007067F30120571227F30120843227535
:02078B001F004D
:10078D00C01BC01CC01DC01EAC17AD18AE19AF1AD2
:0D079D00120306BF01028002D2083008726C
:1007AA0030071CC017C018C019C01AAC1BAD1CAE4C
:1007BA001DAF1E1200BAEF2430FF120571801AC055
:1007CA0017C018C019C01AAC1BAD1CAE1DAF1E1243
:1007DA0000BAEF2430FF120843C017C018C019C06E
:1007EA001AC017C018C019C01AAC1BAD1CAE1DAF79
:1007FA001E1200BAC004C005C006C007AC1BAD1C5F
:10080A00AE1DAF1E1200511201BC8C178D188E1925
:10081A008F1AC01BC01CC01DC01EE4FCFDFE740A5A
:10082A00FF1200BA8C1B8D1C8E1D8F1E051FE51F23
:09083A00B40A02800302078D22BA
:0F084300D2993099FDC2998F993099FDC29922AF
:10085200EBFDEAFCE9F8EDFBECFAE8F91203706053
:010862001481
:10086300EDFBECFAE8F9120370FF12084308E87095
:05087300E40C80E1220D
:10087800758CDC758A00D28C308DFDC28CC28D22BD
:10088800758C4C758A00D28C308DFDC28CC28D223D
:0A0898007F001208880FBF20F9222C
:0A08A200EF600714600914600B22D8
:0F08AC00C291C29322C291D29322D291C29322BF
:1008BB008F0DE50D232323F50D900001E0F52CE5BD
:0808CB002C6002D281750E00C1
:1008D300E50E2402F582E43400F583E0F52DE50E00
:1008E30075F004A4240DF582E5F03400F583E0FFF0
:1008F300E4C0E0FCFDD00675F01012003CC004C05B
:1009030005C006C007E50E75F004A4240EF582E5C4
:10091300F03400F583E0FFE4C0E0FCFDD00675F0A1
:100923001812003C1201ACC004C005C006C007E5A4
:100933000E75F004A4240CF582E5F03400F583E091
:10094300FEE4FFFDFC1201ACC004C005C006C007F5
:10095300E50E75F004A4240BF582E5F03400F5836D
:10096300E4FEFCFDE0FF1201AC8C2E8D2F8E308F48
:1009730031C02EC02FC030C0317401FCE4FFFDFE36
:0B0983001202F7BFFF028003020B5BB3
:10098E00E52D6002D282C02EC02FC030C031E4FCF3
:10099E00FDFE741EFF120051C004C005C006C00744
:1009AE00E52CAF2C3395E0FE33E4500114FCFD1220
:1009BE0001ACC004C005C006C007E52DAF2D3395B0
:1009CE00E0FE33E4500114FCFD1201BCC004C0056E
:1009DE00C006C007E50E250DFFE43400EF232354B7
:1009EE00FC2460F582E43400F583A3A3A3D0E0F0E9
:1009FE001204A5D0E0F01204A5D0E0F01204A5D0A8
:100A0E00E0F075F003E50D250E2440F582E4340088
:100A1E00F583E0A4FFE4C0E0C0E0C0F0C007E50E3F
:100A2E00250DFFE43400EF232354FC2460F582E40B
:100A3E003400F5831203BD1201ACC004C005C0061C
:100A4E00C007E50E250DFFE43400EF232354FCFB15
:100A5E002460F582E43400F583A3A3A3D0E0F01262
:100A6E0004A5D0E0F01204A5D0E0F01204A5D0E069
:100A7E00F0EB2460F582E43400F58312039BE4FE70
:100A8E00FCFD7403FF1201F5C004C005C006C007CB
:100A9E00E50E250DFFE43400EF232354FCFB246008
:100AAE00F582E43400F583A3A3A3D0E0F01204A5ED
:100ABE00D0E0F01204A5D0E0F01204A5D0E0F0EBE7
:100ACE002460F582E43400F58312039BAC47AD48F5
:100ADE00AE49AF4A1202F7BFFF25E50E250DFDE424
:100AEE003400ED232354FC2460F582E43400F583B6
:100AFE00E0F547A3E0F548A3E0F549A3E0F54AE5A4
:100B0E000E250DFFE43400EF232354FC2460F58200
:100B1E00E43400F58312039BAC4BAD4CAE4DAF4E9F
:100B2E001202F7BF0144E50E250DFDE43400ED235E
:100B3E002354FC2460F582E43400F583E0F54BA3E6
:0D0B4E00E0F54CA3E0F54DA3E0F54E801D51
:100B5B00E50E250DFDE43400ED232354FC2460F554
:100B6B0082E43400F5831203C9FFFFFFFF050EE596
:100B7B000EB4080280030208D390002CE075F00A33
:0E0B8B00A4F52390002DE075F00AA4F52422B5
:100B9900750D05750EF5750FE1E4F5107F33120833
:100BA900431208887F321208431208887F541208BA
:100BB900431208887F441208431208887F431208A9
:100BC900431208887F3A1208431208887F201208C6
:100BD9004312088875F00AE529842430FF12084376
:100BE90012088875F00AE52984E5F02430FF120817
:100BF900431208887F201208431208887F5612087A
:100C0900431208887F201208431208887F5212086D
:100C1900431208887F451208431208887F46120844
:100C2900431208887F3A1208431208887F20120865
:100C3900431208887F301208431208887F3012084F
:100C4900431208887F0D1208431208887F0A120888
:070C59004312088875110029
:100C6000E5112401FFE43400FEE4FC7D0A12026277
:100C7000EF2430FF120843120888E5112401FFE435
:100C80003400FEE4FC7D0A120262ED2430FF1208FB
:100C9000431208887F20120843120888E511232395
:100CA000FB2460F582E43400F58312039B74FFFF9C
:0C0CB000FEFCFD120306BF0003020D490C
:100CBC007F20120843120888E51123232460F58253
:100CCC00E43400F583E0F512A3E0F513A3E0F5148A
:100CDC00A3E0F515750D05750EF5750FE1E4F5102E
:020CEC00F516FB
:100CEE00C012C013C014C015AC0DAD0EAE0FAF10B8
:100CFE001200BAEF2430FF120843120888C012C047
:100D0E0013C014C015AC0DAD0EAE0FAF101201CC4A
:100D1E008C128D138E148F15C00DC00EC00FC01007
:100D2E00E4FEFCFD740AFF1200BA8C0D8D0E8E0FC0
:0B0D3E008F100516E516B409A7801AF7
:0B0D49007F4412084312088875160052
:100D54007F301208431208880516E516B409F17F9E
:100D64000D1208431208887F0A12084312088805E6
:100D740011E511B420028003020C607F0D120843B8
:0C0D84001208887F0A1208431208882217
:0C10DA008F11E511232323F5117512007E
:1010E600E5122405FF7D011205A3E5112512FFE493
:1010F6003400FEEF2401FFE43EFEE4FC7D0A12020A
:1011060062EF2430FF120571E5112512FFE4340069
:10111600FEEF2401FFE43EFEE4FC7D0A120262EDCE
:101126002430FF1205717F201205717F2012057190
:10113600E5112512FFE43400EF232354FCFB246061
:10114600F582E43400F58312039B74FFFFFEFCFD79
:09115600120306BF00030212653A
:10115F00E5112512FFE43400EF232354FCFB246038
:10116F00F582E43400F58312039BAC0DAD0EAE0F88
:0A117F00AF101202F7BFFF02802E2E
:10118900E5112512FDE43400ED232354FC2460F518
:1011990082E43400F58312039BAC0DAD0EAE0FAFA4
:0E11A900101201BC8C328D338E348F358031A4
:1011B700C00DC00EC00FC010E5112512FDE43400AC
:1011C700ED232354FC2460F582E43400F5831203F5
:1011D700BD1201BC8C328D338E348F357F2D1205B5
:1011E70071D207AC32AD33AE34AF3512075FE512BB
:1011F7002405FF7D101205A3E5112512FFE4340035
:10120700EF232354FCFB2460F582E43400F58312BA
:10121700039BAC47AD48AE49AF4A120306BF000B6C
:101227007B057A0D7990120580803CE5112512FF28
:10123700E43400EF232354FCFB2460F582E43400FC
:10124700F58312039BAC4BAD4CAE4DAF4E1203066C
:10125700BF00147B057A0D799412058080097B0500
:101267007A0D79981205800512E512B408028003F9
:041277000210E62259
:10127B008F11E5112401FFE43400FEE4FC7D0A121A
:10128B000262EF2430FF120843E5112401FFE4341E
:10129B0000FEE4FC7D0A120262ED2430FF120843CB
:1012AB007F3A1208437F20120843E5112323FB24C6
:1012BB0060F582E43400F58312039B74FFFFFEFCA0
:0A12CB00FD120306BF00030213A387
:1012D500E5112323FB2460F582E43400F583120332
:1012E5009BAC0DAD0EAE0FAF101202F7BFFF028023
:0112F50025D3
:1012F600E51123232460F582E43400F58312039B71
:10130600AC0DAD0EAE0FAF101201BC8C328D338E0C
:05131600348F35802832
:10131B00C00DC00EC00FC010E51123232460F58251
:10132B00E43400F5831203BD1201BC8C328D338E75
:10133B00348F357F2D120843C207AC32AD33AE3438
:10134B00AF3512075FE5112323FB2460F582E434EC
:10135B0000F58312039BAC47AD48AE49AF4A12036D
:10136B0006BF000B7B057A0D799C1208528032E583
:10137B001123232460F582E43400F58312039BAC24
:0D138B004BAD4CAE4DAF4E120306BF00142B
:101398007B057A0D79A412085280097B057A0D79AC
:1013A800981208527F0A1208437F0A12084312084B
:0213B800982279
:1013BA0075420575430D7544AC758C4C758A00757C
:1013CA008911C281C282C283C284C290D281D2826E
:1013DA00D283D284120898C281C282C283C2841282
:1013EA000898D281D282D283D284120898C281C24A
:1013FA0082C283C284E4FF1208A2120525C2071220
:10140A0005C6D2071205C67F9C1205057E70E4FF49
:10141A00123B5A8F3D7E707F05123B5A8F29E4FF9B
:10142A007D031205A37B057A0D79B3120580750D2C
:10143A0088D2077F0A7D1C7B0A1206B2750D88D2F4
:10144A00077F0C7D1C7B0C1206B2750D9AD2077FA2
:10145A00247D087B701206B27F037D041205A37BEC
:10146A00057A0D79C21205807F067D021205A37BDB
:10147A00057A0D79CE1205807F077D021205A37BBE
:10148A00057A0D79DA1205807F0A7D021205A37B9F
:10149A00057A0D79EB120580759850539BEC859B64
:1014AA009B439B0C859B9B759AFA439B10859B9B40
:1014BA00D2ACD2ABD2AFD288D28AE4900040F090BC
:1014CA000041F0900042F0900043F0900044F09008
:1014DA000045F0900046F0900047F0900048F090E8
:1014EA000049F090004AF090004BF090004CF090C8
:1014FA00004DF090004EF090004FF0900050F090A8
:10150A000051F0900052F0900053F0900054F09087
:10151A000055F0900056F0900057F0900058F09067
:10152A000059F090005AF090005BF090005CF09047
:10153A00005DF090005EF090005FF07FC0120843FB
:10154A007F411208437F421208437F461208437BB9
:10155A00027A0079E7123BDC9000E7E0B45901D344
:10156A004002D2039000E8E0B45901D34002D2030A
:10157A009000E9E0B42301D34002D2039000EAE0EC
:10158A00B43101D34002D2039000EBE0B41201D38C
:10159A004002D2039000EDE0B49901D34002D20395
:0315AA00300346C5
:1015AD007F8EE4FD123BB67F80E4FD123BB67F8259
:1015BD00E4FD123BB67F847D09123BB67F867D012B
:1015CD00123BB67F887D04123BB67F8A7D01123BAC
:1015DD00B67F8C7D13123BB67FC07D40123BB67F2C
:1015ED008E7D80123BB675451A7B027A0079E71223
:1015FD003BDC7F0F7D011205A37B027A0079E71298
:10160D0016E57F201205717F201205717B027A008D
:10161D0079E7121636752A20754611D2AAD28AD2CA
:09162D008E7F45120843D204220D
:101636008B0D8A0E890F9000021203F8FA7C005473
:10164600F0FDE475F004C313CD13CDD5F0F8ED2409
:1016560030FF120571AB0DAA0EA90F9000021203FE
:10166600F8540F2430FF1205717F3A120571AB0D45
:10167600AA0EA90F9000011203F8FA7C0054F0FD9F
:10168600E475F004C313CD13CDD5F0F8ED2430FF87
:10169600120571AB0DAA0EA90F9000011203F854A2
:1016A6000F2430FF1205717F3A120571AB0DAA0E99
:1016B600A90F1203707C0054F0FDE475F004C31307
:1016C600CD13CDD5F0F8ED2430FF120571AB0DAA80
:0F16D6000EA90F120370540F2430FF120571225A
:1016E5008B0D8A0E890F9000031203F8FA7C0054C3
:1016F500F0FDE475F004C313CD13CDD5F0F8ED245A
:1017050030FF120571AB0DAA0EA90F90000312034D
:10171500F8540F2430FF1205717F2F120571AB0DA0
:10172500AA0EA90F9000041203F8FA7C0054F0FDEC
:10173500E475F004C313CD13CDD5F0F8ED2430FFD7
:10174500120571AB0DAA0EA90F9000041203F854EF
:101755000F2430FF1205717F2F120571AB0DAA0EF4
:10176500A90F9000061203F8FA7C0054F0FDE47509
:10177500F004C313CD13CDD5F0F8ED2430FF1205D9
:1017850071AB0DAA0EA90F9000061203F8540F2491
:0617950030FF1205712275
:10179B008B0D8A0E890F9000021203F8FA7C00540D
:1017AB00F0FDE475F004C313CD13CDD5F0F8ED24A3
:1017BB0030FF120843AB0DAA0EA90F9000021203C3
:1017CB00F8540F2430FF1208437F3A120843AB0D35
:1017DB00AA0EA90F9000011203F8FA7C0054F0FD39
:1017EB00E475F004C313CD13CDD5F0F8ED2430FF21
:1017FB00120843AB0DAA0EA90F9000011203F85467
:10180B000F2430FF1208437F3A120843AB0DAA0E88
:10181B00A90F1203707C0054F0FDE475F004C313A0
:10182B00CD13CDD5F0F8ED2430FF120843AB0DAA44
:10183B000EA90F120370540F2430FF1208437F20A0
:10184B00120843AB0DAA0EA90F9000031203F8FA6E
:10185B007C0054F0FDE475F004C313CD13CDD5F02B
:10186B00F8ED2430FF120843AB0DAA0EA90F900020
:10187B00031203F8540F2430FF1208437F2F120872
:10188B0043AB0DAA0EA90F9000041203F8FA7C00CB
:10189B0054F0FDE475F004C313CD13CDD5F0F8ED82
:1018AB002430FF120843AB0DAA0EA90F90000412AF
:1018BB0003F8540F2430FF1208437F2F120843AB59
:1018CB000DAA0EA90F9000061203F8FA7C0054F033
:1018DB00FDE475F004C313CD13CDD5F0F8ED243032
:1018EB00FF120843AB0DAA0EA90F9000061203F8C6
:0918FB00540F2430FF12084322AF
:101904008E0D8F0E123AFA7FA0123B14E4FFFCAE48
:101914000D7DFF120262123B14AF0E123B14750FC1
:0119240000C2
:10192500E50F23232460F582E43400F583A3A3A304
:10193500E0FF123B14E50F23232460F582E4340015
:10194500F5831203BD75F008120026123B14E50F4E
:1019550023232460F582E43400F5831203BD75F07A
:1019650010120026123B14E50F23232460F582E4B0
:101975003400F5831203BD75F018120026123B14CE
:10198500050FE50FB41099123B0812087812087874
:10199500123AFA7FA0123B14E50E2440E4350DFA05
:1019A500E4FFEAFEE4FC7DFF120262123B14E50E41
:0919B5002440FF123B14750F10D1
:1019BE00E50F23232460F582E43400F583A3A3A36B
:1019CE00E0FF123B14E50F23232460F582E434007C
:1019DE00F5831203BD75F008120026123B14E50FB5
:1019EE0023232460F582E43400F5831203BD75F0E1
:1019FE0010120026123B14E50F23232460F582E417
:101A0E003400F5831203BD75F018120026123B1434
:101A1E00050FE50FB42099123B08120878120878CA
:101A2E00E50E2480FFE50D3401FEAD23123B8AE561
:101A3E000E2481FFE50D3401FEAD24123B8AE50E26
:101A4E002482FFE50D3401FE9000E0E0FD123B8A9A
:101A5E00E50E2483FFE50D3401FE9000E1E0FD125A
:101A6E003B8AE50E2484FFE50D3401FE9000E2E092
:101A7E00FD123B8AE50E2485FFE50D3401FE900034
:101A8E00E3E0FD123B8AE50E2486FFE50D3401FEF0
:101A9E009000E4E0FD123B8AE50E2487FFE50D344D
:101AAE0001FE9000E5E0FD123B8AE50E2488FFE57D
:101ABE000D3401FE9000E6E0FD123B8AE50E24890E
:101ACE00FFE50D3401FEAD4A123B8AE50E248AFF76
:101ADE00E50D3401FAEFFBAC47AD48AE49AF4A75A0
:101AEE00F008120026EFFD8A068B07123B8AE50EE0
:101AFE00248BFFE50D3401FAEFFBAC47AD48AE4940
:101B0E00AF4A75F010120026EFFD8A068B07123BC6
:101B1E008AE50E248CFFE50D3401FAEFFBAC47ADE0
:101B2E0048AE49AF4A75F018120026EFFD8A068BB3
:101B3E0007123B8AE50E248DFFE50D3401FEAD4EF6
:101B4E00123B8AE50E248EFFE50D3401FAEFFBAC55
:101B5E004BAD4CAE4DAF4E75F008120026EFFD8A20
:101B6E00068B07123B8AE50E248FFFE50D3401FA32
:101B7E00EFFBAC4BAD4CAE4DAF4E75F010120026D8
:101B8E00EFFD8A068B07123B8AE50E2490FFE50DCA
:101B9E003401FAEFFBAC4BAD4CAE4DAF4E75F018B9
:0D1BAE00120026EFFD8A068B07123B8A22EB
:031BBB001213BA48
:101BBE00E545B40E0302357D503DE5452400B40ED7
:101BCE0000400302392AFA232A901BDB7302278274
:101BDE000221F6022EDF0222F40221350228D30260
:101BEE002EB202207C021F6B021DED021EAC021CE7
:101BFE007E02354D023565E545B416030238985020
:101C0E003AE545B41203021DC35018E54524F170A0
:101C1E00030235951470030235A314700302366166
:101C2E0002392AE54524ED700302383E1470030292
:101C3E0034C114700302386702392AE545B41A0319
:101C4E000238FE5018E54524E970030238851470F9
:101C5E00030238B614700302392A02392AE54524E4
:101C6E00E570030238C924E670030238DB021BBE9E
:091C7E00E52B24D57003021DC002
:101C8700C2071205C6750D92C2077F0E7D887B18A5
:101C97001206B2E4FF7D031205A37B057A0D79B323
:101CA7001205807F037D031205A37B057A0D79F763
:101CB7001205807F057D021205A37B057A0E790543
:101CC700120580AB42AA43A9441205807E707F03A8
:101CD700123B5A8F237E707F04123B5A8F247F0753
:101CE7007D021205A37B057A0E790F12058075F028
:101CF7000AE524842430FF1205717F301205717FB5
:101D0700087D021205A37B057A0E791A12058075E4
:101D1700F00AE523842430FF1205717F3012057124
:101D27007F0A7D021205A37B057A0E7925120580AD
:101D370075F00AE527842430FF12057175F00AE56E
:101D47002784E5F02430FF1205717B057A0E792A86
:101D57001205807F30120571E5262431FF120571C7
:101D67007F0C7D021205A37B057A0E79311205805F
:101D770075F00AE529842430FF12057175F00AE52C
:101D87002984E5F02430FF1205717B057A0E793638
:101D970012058075F00AE528842430FF1205717555
:101DA700F00AE52884E5F02430FF120571752B232E
:101DB700754610754512752A3B021BBED283C28138
:101DC700C282E4FFF53CD2AAD28AD2B9D2BA1208AB
:101DD700A27F411208437FC71208437F011208A25E
:101DE70075451A021BBEE52B24DD601024FD700328
:0C1DF700021E80147003021E8002392AB4
:101E0300C2071205C6750D92C2077F0E7D887B1827
:101E13001206B2E4FF7D031205A37B057A0D79B3A5
:101E23001205807F037D011205A37B057A0E793DA0
:101E33001205807F057D021205A37B057A0E794F7B
:101E43001205807F077D021205A37B057A0E790FA9
:101E53001205807F087D021205A37B057A0E791A8D
:101E6300120580752A1DE4FFF522F5251208A27FCD
:101E7300AD120843752B2675451A02392A7F057D55
:101E8300021205A37B057A0E794F120580752A1D70
:101E9300E4FFF522F5251208A27F441208437FAD23
:101EA30012084375451A021BBEE52B24DD6010247E
:0F1EB300FD7003021F3F147003021F3F02392A04
:101EC200C2071205C6750D92C2077F0E7D887B1868
:101ED2001206B2E4FF7D031205A37B057A0D79B3E6
:101EE2001205807F037D011205A37B057A0E793DE1
:101EF2001205807F057D021205A37B057A0E795DAE
:101F02001205807F077D021205A37B057A0E790FE9
:101F12001205807F087D021205A37B057A0E791ACD
:101F2200120580752A1CE4FFF522F5251208A27F0E
:101F3200AC120843752B2775451A02392A7F057D95
:101F4200021205A37B057A0E795D120580752A1CA3
:101F5200E4FFF522F5251208A27F431208437FAC65
:101F620012084375451A021BBEE52BB42A03022050
:101F7200195017E52B24DD602124FE70030220197D
:101F820024FC7003022019022079E52B24CC700373
:0A1F920002201924FB605C02392ACA
:101F9C00C2071205C6750D92C2077F0E7D887B188D
:101FAC001206B2E4FF7D031205A37B057A0D79B30B
:101FBC001205807F037D011205A37B057A0E796BD8
:101FCC001205807F087D021205A37B057A0E797EAF
:101FDC001205807F30120571E5262431FF12057140
:101FEC00752B3975451A02392A0526E526B40403E2
:101FFC00E4F5267F087D0C1205A37F30120571E5F0
:10200C00262431FF12057175451A02392AC20712AE
:10201C0005C6E4FF7D031205A37B057A0E798912B0
:10202C0005807F037D031205A37B057A0E79971239
:10203C000580E4F50DF50EF50FF510AF250525120D
:10204C0010DA750D92D2077F0E7D887B181206B2BE
:10205C007F027D111205A3E5252430FF120571E5E1
:10206C0025B40403E4F525752B3475451A021BBE03
:10207C00E52B24DB600E24FC600A14600724F66058
:04208C000302392AE8
:10209000C2071205C6E4FF7D031205A37B057A0D76
:1020A00079B31205807F037D031205A37B057A0EA9
:1020B00079A3120580E528AB2860392323245CFB33
:1020C000F582E43400F58312039B74FFFFFEFCFDF0
:1020D000120306BF0002801CE5282323245CF5823E
:1020E000E43400F583E0F547A3E0F548A3E0F549C3
:1020F000A3E0F54A85470D85480E85490F854A10AE
:10210000AF2505251210DA750D92D2077F0E7D8856
:102110007B181206B27F027D111205A3E52524303B
:10212000FF120571E525B40403E4F525752B2A7526
:10213000451A021BBEE52B24DD600A24FB70030256
:0521400021C402392A50
:1021450075F021E5288485F028C2071205C6750DAE
:1021550092C2077F0E7D887B181206B2E4FF7D03CD
:102165001205A37B057A0D79B31205807F037D01E6
:102175001205A37B057A0E79B11205807F087D02D1
:102185001205A37B057A0E79C41205807F097D02AD
:102195001205A37B057A0E79D212058075F00AE542
:1021A50028842430FF12057175F00AE52884E5F0CE
:1021B5002430FF120571752B2875451A02392A0539
:1021C5002875F021E5288485F0287F097D0D120505
:1021D500A375F00AE528842430FF12057175F00A0D
:1021E500E52884E5F02430FF12057175451A021BB8
:1021F500BEE52B24DD601824F8700302228624F83E
:0F220500600D24FC60421470030222BF02392ACC
:10221400E4FF1208A275420575430E7544DE7F057E
:102224007D021205A37B057A0E7905120580AB4267
:10223400AA43A944120580D201C284C206752B3771
:10224400752A2075451A02392A7F011208A275429F
:102254000575430E7544E57F057D021205A37B05D4
:102264007A0E7905120580AB42AA43A9441205806F
:10227400C201D284C206752B2B752A2175451A0218
:10228400392AE4FF1208A275420575430E7544EC21
:102294007F057D021205A37B057A0E790512058060
:1022A400AB42AA43A944120580C201C284D2067576
:1022B4002B38752A2075451A02392AE4FF1208A220
:1022C40075420575430D7544AC7F057D021205A367
:1022D4007B057A0E7905120580AB42AA43A9441204
:1022E4000580C206752B33752A2075451A021BBE5C
:1022F400E52BB42E030224F65016E52B24DD6028CA
:1023040024F770030223E414700302246D02277F70
:10231400E52B24D1700302257F14700302260814D0
:08232400700302269102392A20
:10232C00754519C2071205C6750D92C2077F0E7D41
:10233C00887B181206B2E4FF7D031205A37B057A95
:10234C000D79B31205807F037D031205A37B057AFB
:10235C000E79F31205807F087D021205A37B057AA6
:10236C000F79011205807F097D021205A37B057A86
:10237C000F790F1205807F0F7D011205A37B027A66
:10238C000079E71216E57F201205717F2012057186
:10239C007B027A0079E71216369000EAE054F0FBE3
:1023AC00E475F004C313CB13CBD5F0F88B3B900042
:1023BC00EAE0540FFAE53B75F00AA42AF53B753AAE
:1023CC00017F0FAD3A1205A37F5F1205717F5F127B
:1023DC000571752B2C02392A75F00AE53B849000A7
:1023EC00EAF0C454F0F075F00AE53B84E025F0F017
:1023FC007F0FAD3A1205A39000EAE07A0054F0FB8F
:10240C00E475F004C313CB13CBD5F0F8EB2430FFF9
:10241C001205719000EAE0540F2430FF1205719000
:10242C0000EBE054F0FBE475F004C313CB13CBD5F5
:10243C00F0F88B3B9000EBE0540FFAE53B75F00A9B
:10244C00A42AF53B753A047F0FAD3A1205A37F5FC2
:10245C001205717F5F120571752B2D7545190239A7
:10246C002A75F00AE53B849000EBF0C454F0F0754B
:10247C00F00AE53B84E025F0F07F0FAD3A1205A39E
:10248C009000EBE07A0054F0FBE475F004C313CB3E
:10249C0013CBD5F0F8EB2430FF1205719000EBE074
:1024AC00540F2430FF1205719000EDE054F0FBE462
:1024BC0075F004C313CB13CBD5F0F88B3B9000ED28
:1024CC00E0540FFAE53B75F00AA42AF53B753A0780
:1024DC007F0FAD3A1205A37F5F1205717F5F120566
:1024EC0071752B2E75451902392A75F00AE53B8456
:1024FC009000EDF0C454F0F075F00AE53B84E02553
:10250C00F0F07F0FAD3A1205A39000EDE07A005485
:10251C00F0FBE475F004C313CB13CBD5F0F8EB242C
:10252C0030FF1205719000EDE0540F2430FF1205BE
:10253C00719000E9E054F0FBE475F004C313CB1385
:10254C00CBD5F0F88B3B9000E9E0540FFAE53B75E6
:10255C00F00AA42AF53B753A0B7F0FAD3A1205A38E
:10256C007F5F1205717F5F120571752B2F754519F1
:10257C0002392A75F00AE53B849000E9F0C454F066
:10258C00F075F00AE53B84E025F0F07F0FAD3A12D0
:10259C0005A39000E9E07A0054F0FBE475F004C365
:1025AC0013CB13CBD5F0F8EB2430FF120571900050
:1025BC00E9E0540F2430FF1205719000E8E054F06C
:1025CC00FBE475F004C313CB13CBD5F0F88B3B9025
:1025DC0000E8E0540FFAE53B75F00AA42AF53B75C8
:1025EC003A0E7F0FAD3A1205A37F5F1205717F5F24
:0625FC00120571752B3081
:1026020075451902392A75F00AE53B849000E8F015
:10261200C454F0F075F00AE53B84E025F0F07F0F3A
:10262200AD3A1205A39000E8E07A0054F0FBE4759D
:10263200F004C313CB13CBD5F0F8EB2430FF120513
:10264200719000E8E0540F2430FF1205719000E70A
:10265200E054F0FBE475F004C313CB13CBD5F0F8D0
:102662008B3B9000E7E0540FFAE53B75F00AA42A91
:10267200F53B753A117F0FAD3A1205A37F5F120544
:10268200717F5F120571752B3175451902392A75F3
:10269200F00AE53B849000E7F0C454F0F075F00ACC
:1026A200E53B84E025F0F07F0FAD3A1205A39000E0
:1026B200E7E07A0054F0FBE475F004C313CB13CBCC
:1026C200D5F0F8EB2430FF1205719000E7E0540FCB
:1026D2002430FF1205717F8EE4FD123BB67F80909D
:1026E20000E7E0FD123BB67F829000E8E0FD123B7E
:1026F200B67F849000E9E0FD123BB67F869000EA47
:10270200E0FD123BB67F889000EBE0FD123BB67F06
:102712008A7D03123BB67F8C9000EDE0FD123BB642
:102722007F8E7D80123BB67F077D021205A37B055B
:102732007A0F790F1205807F087D021205A37B05AF
:102742007A0F791D1205807F097D021205A37B0590
:102752007A0F792B1205807F0A7D021205A37B0571
:102762007A0F793B1205807F0B7D021205A37B0550
:102772007A0F7948120580752B3275451A021BBEF5
:10278200E52BB42F03022840500FE52B24D4601B05
:102792001460491460770228D0E52B24D07003021C
:0B27A20028711470030228A202392ADB
:1027AD00053BE53BB42003753B017F0FAD3A1205A8
:1027BD00A375F00AE53B842430FF12057175F00A0C
:1027CD00E53B84E5F02430FF12057175451902399A
:1027DD002A053BE53BB40D03753B017F0FAD3A1266
:1027ED0005A375F00AE53B842430FF12057175F0E1
:1027FD000AE53B84E5F02430FF1205717545190299
:10280D00392A053BE53BB46403E4F53B7F0FAD3A54
:10281D001205A375F00AE53B842430FF120571758E
:10282D00F00AE53B84E5F02430FF1205717545197A
:10283D0002392A053BE53BB41803E4F53B7F0FADA8
:10284D003A1205A375F00AE53B842430FF12057199
:10285D0075F00AE53B84E5F02430FF1205717545EE
:10286D001902392A053BE53BB43C03E4F53B7F0FE8
:10287D00AD3A1205A375F00AE53B842430FF12052D
:10288D007175F00AE53B84E5F02430FF1205717592
:10289D00451902392A053BE53BB43C03E4F53B7F82
:1028AD000FAD3A1205A375F00AE53B842430FF12F3
:1028BD00057175F00AE53B84E5F02430FF120571D2
:1028CD00754519021BBEE52B24DD600724FA600354
:0328DD00022EAF19
:1028E000754519C2071205C6750D92C2077F0E7D88
:1028F000887B181206B2E4FF7D031205A37B057ADC
:102900000D79B31205807F037D031205A37B057A41
:102910000F7951120580E4FFF5257E70123B5A8F26
:102920003D7E707F01123B5AEF24FFF53EE53D707E
:012930003373
:102931007F087D021205A37B057A0F79601205805D
:102941007F0A7D021205A37B057A0F793B12058070
:102951007F0B7D021205A37B057A0F794812058052
:03296100022EAC97
:102964007F067D021205A37B057A0D79EB120580A3
:102974007F067D021205A3E53E3395E0FAE53C337C
:1029840095E0FCE53EC3953CEA9C30E70BE53E242C
:102994000AC3953CF53F8007E53EC3953CF53F757A
:0E29A4004100E5416480B4A0004003022BD046
:1029B20075F004E5413395E0E541A4FBAAF0E53F5B
:1029C200AF3F3395E0FE7C02E4FD120226EB2FFFBF
:1029D200EA3EFEEF2403FFE43EFE123B5A7E00E491
:1029E200FCFDC004C005C006C007E5413395E0E523
:1029F20041232354FC2460F582E43400F583A3A32D
:102A0200A3D0E0F01204A5D0E0F01204A5D0E0F0CB
:102A12001204A5D0E0F0E541232354FC2460F582A2
:102A2200E43400F5831203BD75F00812003CC004C3
:102A3200C005C006C00775F004E5413395E0E541E5
:102A4200A4FFC0F0C007E53FAF3F3395E0FE7C0234
:102A5200E4FD120226D0E02FFFD0E03EFEEF24027A
:102A6200FFE43EFE123B5A7C00E4FDC0E0D00612B9
:102A720001ACC004C005C006C007E5413395E0E5DE
:102A820041232354FC2460F582E43400F583A3A39C
:102A9200A3D0E0F01204A5D0E0F01204A5D0E0F03B
:102AA2001204A5D0E0F0E5413395E0E5412323543B
:102AB200FC2460F582E43400F5831203BD75F0084E
:102AC20012003CC004C005C006C00775F004E54111
:102AD2003395E0E541A4FFC0F0C007E53FAF3F33C7
:102AE20095E0FE7C02E4FD120226D0E02FFFD0E04A
:102AF2003EFEEF2401FFE43EFE123B5A7C00E4FD61
:102B0200C0E0D0061201ACC004C005C006C007E593
:102B1200413395E0E541232354FC2460F582E434FB
:102B220000F583A3A3A3D0E0F01204A5D0E0F01235
:102B320004A5D0E0F01204A5D0E0F0E5413395E021
:102B4200E541232354FC2460F582E43400F583122A
:102B520003BD75F00812003CC004C005C006C007E2
:102B620075F004E5413395E0E541A4FFC0F0C007EC
:102B7200E53FAF3F3395E0FE7C02E4FD120226D032
:102B8200E02FFFD0E03EFE123B5A7C00E4FDC0E0A5
:102B9200D0061201ACC004C005C006C007E541332F
:102BA20095E0E541232354FC2460F582E43400F5EA
:102BB20083A3A3A3D0E0F01204A5D0E0F01204A5F1
:102BC200D0E0F01204A5D0E0F005410229A6E53FCD
:102BD200AF3F3395E0FE7C02E4FD120226EF248033
:102BE200FFEE3401FE123B5A8F23E53FAF3F339590
:102BF200E0FE7C02E4FD120226EF2481FFEE3401A6
:102C0200FE123B5A8F24754100E5416480B488006E
:102C1200503EE5413395E0FAE53FAF3F3395E0FEA4
:102C22007C02E4FD120226E5412FFFEA3EFEEF247C
:102C320082FFEE3401FE123B5AE5413395E0FAE59C
:102C42004124E0F582EA3400F583EFF0054180B9D2
:102C5200E53FAF3F3395E0FE7C02E4FD120226EF32
:102C6200248CFFEE3401FE123B5AE4F547F548F599
:102C7200498F4AAC47AD48AE49AF4A75F0081200D9
:102C82003CC004C005C006C007E53FAF3F3395E036
:102C9200FE7C02E4FD120226EF248BFFEE3401FEDD
:102CA200123B5A7E00E4FCFD1201AC8C478D488E2B
:102CB200498F4AAC47AD48AE49AF4A75F008120099
:102CC2003CC004C005C006C007E53FAF3F3395E0F6
:102CD200FE7C02E4FD120226EF248AFFEE3401FE9E
:0B2CE200123B5A7E00E4FCFD1201AC26
:102CED008C478D488E498F4AAC47AD48AE49AF4AA7
:102CFD0075F00812003CC004C005C006C007E53FD2
:102D0D00AF3F3395E0FE7C02E4FD120226EF2489ED
:102D1D00FFEE3401FE123B5A7E00E4FCFD1201ACC5
:102D2D008C478D488E498F4AE53FAF3F3395E0FE86
:102D3D007C02E4FD120226EF2490FFEE3401FE1218
:102D4D003B5AE4F54BF54CF54D8F4EAC4BAD4CAEBF
:102D5D004DAF4E75F00812003CC004C005C006C052
:102D6D0007E53FAF3F3395E0FE7C02E4FD120226FE
:102D7D00EF248FFFEE3401FE123B5A7E00E4FCFD82
:102D8D001201AC8C4B8D4C8E4D8F4EAC4BAD4CAE71
:102D9D004DAF4E75F00812003CC004C005C006C012
:102DAD0007E53FAF3F3395E0FE7C02E4FD120226BE
:102DBD00EF248EFFEE3401FE123B5A7E00E4FCFD43
:102DCD001201AC8C4B8D4C8E4D8F4EAC4BAD4CAE31
:102DDD004DAF4E75F00812003CC004C005C006C0D2
:102DED0007E53FAF3F3395E0FE7C02E4FD1202267E
:102DFD00EF248DFFEE3401FE123B5A7E00E4FCFD04
:102E0D001201AC8C4B8D4C8E4D8F4E053C7B057A53
:102E1D000F796B120580E53CAF3C3395E0FEE4FC89
:102E2D007D0A12023AEF2430FF120571E53CAF3CEA
:102E3D003395E0FEE4FC7D0A12023AED2430FF12D8
:102E4D000571E53CB53D03E4F53C7F087D021205B7
:102E5D00A37B057A0F79771205807B027A0079E0E2
:102E6D001216367F097D021205A37B057A0F797D37
:102E7D001205807B027A0079E01216E57F0B7D0248
:102E8D001205A37B057A0F79831205807F0C7D02D5
:102E9D001205A37B057A0F7991120580752B297583
:102EAD00451A021BBEE52B24DB600D24FC600914C2
:082EBD00600624F66002801497
:102EC500D2847F011208A2120878120B99E4FF122E
:102ED50008A2C28475451A021BBEE52BB42A03025B
:102EE50032885017E52B24DD602124FE7003022F64
:102EF500A924FC7003022FA90234BEE52B24CC7053
:0B2F050003022FA924FA606902392A98
:102F1000C2071205C6750D92C2077F0E7D887B1809
:102F20001206B2E4FF7D031205A37B057A0D79B387
:102F30001205807F037D011205A37B057A0F799925
:102F40001205807F087D021205A37B057A0F79ACFC
:102F500012058075F00AE527842430FF120571758B
:102F6000F00AE52784E5F02430FF120571752B3A4D
:102F700075451A02392AE5272402F527B42203757C
:102F800027027F087D0B1205A375F00AE52784242C
:102F900030FF12057175F00AE52784E5F02430FF53
:102FA00012057175451A02392AC2AAC2071205C64E
:102FB000750D92C2077F0E7D887B181206B2E4FF62
:102FC0007D031205A37B057A0D79B31205807F037B
:102FD0007D041205A37B057A0F79B61205807F0266
:102FE0001208A27F067D021205A37B057A0F79C322
:102FF0001205807F077D021205A37B057A0F79D029
:103000001205807F097D021205A37B057A0F79DF07
:103010001205807F0A7D021205A37B057A0F79ECE9
:103020001205807F1B1208437F0C1208437B057A30
:103030000F79FA1208527B057A0D79B31208527F84
:103040000A1208437F0A1208437F1B1208437F04B9
:103050001208437B057A0F79FE12085275F00AE5D3
:1030600029842430FF12084375F00AE52984E5F02D
:103070002430FF1208437F0A1208437F0A120843D4
:10308000754100E5413395E0B40005E541B5270001
:02309000505B93
:103092007F077D0E1205A3E5413395E0FAE5412451
:1030A20001FFE43AFEE4FC7D0A12023AEF2430FF0B
:1030B200120571E5413395E0FAE5412401FFE43A56
:1030C200FEE4FC7D0A12023AED2430FF1205717F04
:1030D2001B1208437F04120843E4F50DF50EF50FA9
:1030E200F510AF4112127B054180961208987F1BA2
:1030F2001208437F041208437B057A10790C1208E8
:10310200527FF1120843C04BC04CC04DC04EAC4779
:10311200AD48AE49AF4A1201BC8C368D378E388F1E
:1031220039C207AC36AD37AE38AF3975F00112008F
:103132002612075FC036C037C038C039E4FEFCFD36
:1031420004FF12019DC004C005C006C007E4FEFCD6
:10315200FD740AFF1200518C368D378E388F397FFD
:103162002E120843AC36AD37AE38AF3975F00112C6
:103172000026EF2430FF1208437F0A1208437F1B08
:103182001208437F041208437B057A10791712084C
:103192005275F00AE524842430FF1208437F30126E
:1031A20008437F0A1208437F1B1208437F04120858
:1031B200437B057A10792212085275F00AE52384BE
:1031C2002430FF1208437F301208437F0A1208435B
:1031D2007F0A1208437F1B1208437F041208437BB5
:1031E200057A10792D1208527B027A0079E01217C3
:1031F2009B7F0A1208437F1B1208437F0412084375
:103202007B057A10793A1208521208987B027A00EA
:1032120079E712179B7F1B1208437F041208437B36
:10322200057A107948120852120888E4FF1208A29F
:103232007F087D021205A37B057A10795B12058057
:103242007F067D021205A37B057A10796C12058038
:103252007F077D021205A37B057A1079791205801A
:103262007F097D021205A37B057A0F79DF120580A3
:103272007F0A7D021205A37B057A107988120580E8
:0632820075451A02392A0D
:10328800C2071205C6750D92C2077F0E7D887B188E
:103298001206B2E4FF7D031205A37B057A0D79B30C
:1032A8001205807F037D041205A37B057A0F79B68A
:1032B8001205807F021208A27F067D021205A37BF9
:1032C800057A0F79C31205807F077D021205A37B5B
:1032D800057A0F79D01205807F097D021205A37B3C
:1032E800057A0F79DF1205807F0A7D021205A37B1C
:1032F800057A0F79EC1205807F1B1208437F0412B0
:1033080008437B057A1079961208527F1B120843EE
:103318007F041208437B057A0F79FE12085275F074
:103328000AE529842430FF12084375F00AE5298448
:10333800E5F02430FF1208437F0A1208437F0A127F
:103348000843754100E5413395E0B40005E541B512
:043358002700505E9C
:10335C007F077D0E1205A3E5413395E0FAE5412484
:10336C0001FFE43AFEE4FC7D0A12023AEF2430FF3E
:10337C00120571E5413395E0FAE5412401FFE43A89
:10338C00FEE4FC7D0A12023AED2430FF1205717F37
:10339C001B1208437F0412084385470D85480E8590
:1033AC00490F854A10AF4112127B054180931208D8
:1033BC00987F1B1208437F041208437B057A10790F
:1033CC000C1208527FF1120843C04BC04CC04DC0C8
:1033DC004EAC47AD48AE49AF4A1201BC8C368D3766
:1033EC008E388F39C207AC36AD37AE38AF3975F081
:1033FC000112002612075FC036C037C038C039E44E
:10340C00FEFCFD04FF12019DC004C005C006C007F0
:10341C00E4FEFCFD740AFF1200518C368D378E3899
:10342C008F397F2E120843AC36AD37AE38AF3975B5
:10343C00F001120026EF2430FF1208437F0A120815
:10344C00437F1B1208437F041208437B057A1079D3
:10345C0048120852120888E4FF1208A27F087D0265
:10346C001205A37B057A10795B1205807F067D021D
:10347C001205A37B057A10796C1205807F077D02FB
:10348C001205A37B057A1079791205807F097D02DC
:10349C001205A37B057A0F79DF1205807F0A7D0266
:1034AC001205A37B057A107988120580752B25757A
:1034BC00451A021BBEC283C2AA754100E541648055
:1034CC00B48800502AE5413395E0FAE54124E7F54C
:1034DC0082EA3400F583E0FCE5413395E0FAE541FE
:1034EC0024E0F582EA3400F583ECF0054180CD75DB
:1034FC004100E5416480B4880050071208880541FA
:10350C0080F0E4FF1208A2752A20E4F525F522C20A
:10351C0000747FF54774FFF548F549F54A7480F55A
:10352C004BE4F54CF54DF54EF525D290F54F755015
:06353C00147FC7120843D2
:103542007F8012084375451A021BBE752501E4FFF0
:103552001208BB7FC61208437F8012084375451AC2
:10356200021BBE7525027F011208BB7FC3120843EE
:103572007F8012084375451A021BBE7525037F0220
:103582001208BB7FC41208437F8012084375451A94
:10359200021BBE8526257F031208BB854645021BFA
:1035A200BE7E70E4FF123B5A8F3D7E707F01123B5C
:1035B2005A8F3EE53E3395E0FE7C02E4FD12022680
:1035C200121904053EE53EB40A03E4F53EE53D6406
:1035D20080B48A005002053D7E70E4FFAD3D123B8F
:1035E2008A7E707F01AD3E123B8A752B25C207127F
:1035F20005C6E4FF7D031205A37B057A0D79B3129C
:1036020005807F037D031205A37B057A0E7997124D
:1036120005807F027D111205A3E5252431FF1205E5
:1036220071750D92D2077F0E7D887B181206B2E467
:10363200F50DF50EF50FF510AF2505251210DAE59B
:1036420025B40403E4F525E4F53C75451A3001037D
:1036520075451220060302392A754502021BBEC2B5
:10366200071205C6E4FF7D031205A37B057A0D79D7
:10367200B31205807F037D061205A37B057A1079BC
:10368200A61205807F067D021205A3D200754100B5
:09369200E5416480B4A000505031
:10369B00E541AB413395E0E541232354FC2460F530
:1036AB0082E43400F58312039BE4FCFD743EFE744C
:1036BB0083FF1202F7BF01028020EB232354FC246B
:1036CB0060F582E43400F58312039BE4FCFD743E49
:1036DB00FE747DFF1202F7BFFF02C200054180A7F7
:0636EB0030812E30002B9F
:1036F1007B057A1079B01205807F097D021205A33E
:103701007B057A0F79831205807F0A7D021205A35A
:0B3711007B057A1079C1120580802929
:10371C007B057A1079C91205807F097D021205A3F9
:10372C007B057A0F79831205807F0A7D021205A32F
:10373C007B057A1079C1120580D2A87401900040E3
:10374C00F004900041F0900042F004900043F074BB
:10375C0005900044F07403900045F0900046F0741E
:10376C0001900047F0740D900048F0900049F090E3
:10377C00004AF090004BF00490004CF01490004D77
:10378C00F090004EF090004FF07411900050F090BB
:10379C000051F004900052F004900053F09000544B
:1037AC00F014900055F014900056F004900057F06F
:1037BC00741C900058F004900059F090005AF0904E
:1037CC00005BF01490005CF00490005DF01490002D
:1037DC005EF00490005FF07E707F03123B5A8F23E3
:1037EC007E707F04123B5A8F2475410AE541339554
:1037FC00E0B40006E541B52301D3500D7F43120818
:10380C0043E541240AF54180E375410AE5413395CE
:10381C00E0B40006E541B52401D3500D7F441208F5
:10382C0043E541240AF54180E3752B2575451A02C1
:10383C001BBEC291D293120878120B99E4FF1208A6
:10384C00A21208787FC71208437F011208A2C29106
:10385C00D293752A2175451A021BBEC283752A1E86
:10386C00E4FFF522F5251208A27F431208437FAC32
:10387C0012084375451A021BBE7F011208A2AF2322
:10388C00120843752A2175451A021BBEC283752A7C
:10389C001FE4FFF522F5251208A27F441208437F8E
:1038AC00AD12084375451A021BBE7F011208A2AF68
:1038BC0024120843752A2175451A021BBEC283E4E3
:1038CC00FF1208A27F4212084375451A021BBE7FE5
:1038DC00401208431208887F40120843120888AF30
:1038EC0023120843120888AF2412084375451A02A4
:1038FC001BBE7B027A0079E7123BDC7F0F7D011245
:10390C0005A37B027A0079E71216E57F2012057178
:10391C007F201205717B027A0079E7121636021BA2
:01392C00BEDC
:07392D00C0E0C0D030042A05
:1039340075A0FFD2B600C28700E5A054F0F54000A0
:10394400D28700C2B600D290E4F54F755003E5402B
:0F395400C4540FF540C283854045D0D0D0E03237
:08396300C0D0754514D0D0322C
:10396B00C0E0C0F0C083C082C0D0C000C001C002A4
:10397B00C003C004C005C006EFC007209803023A7D
:01398B00AF8C
:10398C00C298E5999000EEF0E52AB41F02807250BF
:10399C000FE52A24E4602414606A14601B023AAF19
:1039AC00E52A24E07003023A55147003023A83149A
:0839BC007003023AAF023AAFBA
:1039C4007545179000EEE075F00AA4F5237F077D96
:1039D4000C1205A375F00AE524842430FF12057146
:1039E4007F301205717F087D0C1205A375F00AE57E
:1039F40023842430FF1205717F301205717E707F9D
:103A040003AD23123B8A023AAF7545189000EEE0ED
:103A140075F00AA4F5247F077D0C1205A375F00A3E
:103A2400E524842430FF1205717F301205717F086C
:103A34007D0C1205A375F00AE523842430FF1205DA
:103A4400717F301205717E707F04AD24123B8A8031
:103A54005A9000EEE0FCE5222400F582E43400F5FF
:083A640083ECF0E522B43F0BF6
:0B3A6C00E4F522E525240CF545803828
:103A77000522E5222480FF120843802C9000EEE007
:103A870024BF600F14602114601114601324FE60BA
:033A970014801583
:103A9A00754613754512800D7545158008754516CE
:103AAA008003754535D007D006D005D004D003D0A1
:103ABA0002D001D000D0D0D082D083D0F0D0E03272
:103ACA00C0E0C0F0C0D0C28F758C4C758A00054F1B
:0E3ADA00E54FB55002C290D0D0D0F0D0E0320F
:103AE800042704060510477FFFFFFF104B800000E6
:013AF80000CD
:03001B00023ACADC
:0300230002396B34
:030013000239634C
:0300030002392D92
:100D90004D696E004D6178004F5646002020286D49
:100DA000696E29002020286D6178290053494E473B
:100DB0004C45004348524F4E4F3332432049434342
:100DC0004300202053454C4620544553540054655D
:100DD0007374696E6720746865004368616E6E6540
:100DE0006C73202020202020202000506C7A205777
:100DF0006169742E2E2E0053595354454D2053547F
:100E0000415455530053657474696E673D20005317
:100E1000746172742054683D200053746F702020F8
:100E200054683D200050524E3A00202053434E3A21
:100E3000004944203A0020205245463A0054485286
:100E40004553484F4C442053455454494E47005352
:100E500074617274204368616E6E656C0053746FC8
:100E600070204368616E6E656C7300534554204476
:100E7000454641554C542053435245454E0053631B
:100E80007265656E204E6F3A004348524F4E4F33A5
:100E90003220494343430043482054494D45286E7E
:100EA0007329004348204A4954544552286E7329F7
:100EB00000534554204A4954544552204348414E1A
:100EC0004E454C00546865205265666572656E63D8
:100ED00065004368616E6E656C2069733A004D551C
:100EE0004C5449200052454D4F5445005052494EF4
:100EF000542000434C4F434B2053455454494E47D4
:100F00000053657474696E6720746865202000540E
:100F1000696D6520616E6420446174650068617369
:100F2000204368616E676564202000202020202017
:100F30002020202020202020202000507265737364
:100F40002052535420746F00636F6E74696E756520
:100F50000053544F524544205245434F524453008E
:100F60004E6F205265636F726473005265636F72D7
:100F700064204E6F2E200054696D653A0044617400
:100F8000653A005072657373204E585420666F7234
:100F90000064657461696C73005345542050524974
:100FA0004E54204348414E4E454C53004368616EB9
:100FB0006E656C733A005052494E5420535441545C
:100FC0005553005072696E74696E672074686500CD
:100FD0004368616E6E656C204E6F2E20303000507D
:100FE000726573732050524E20746F0053746F708B
:100FF000205072696E74696E6700202020002020E6
:1010000053797374656D2049443A20004A697474B9
:10101000657220203D200053746172745448203D55
:10102000200053746F70544820203D200045787094
:10103000723A2054696D652E0A005072696E743AD6
:101040002054696D652E0A000A20202020202020CF
:101050002020202D2A2A2D0A0A0A002020202020C4
:1010600020202020202020202020200054686520DF
:101070005072696E74696E670068617320436F6DAA
:10108000706C6574656420005072696E74204167ED
:1010900061696E2020002020204A49545445522086
:1010A000286E73290A0053454C462054455354007A
:1010B00053656C6620546573742050617373656466
:1010C0000044657461696C730053656C66205465F7
:0A10D0007374204661696C656400CA
:0E3AFA00308602C286D285D286C285C286225E
:0C3B0800308602C286C285D286D2852299
:023B14007E0031
:103B1600EF548024FF920A9285D286C286EFC33381
:103B2600FF0EBE08EBD285D286A285920AC28622F5
:033B3600E4FEFFAB
:103B3900D286A2859207EEC333FEA207E4332EFE96
:083B4900C2860FBF08EAFF224B
:093B5100D285D286C286D28622FA
:103B5A008E0D8F0E123AFA7FA0123B14E4FFFCAED0
:103B6A000D7DFF120262123B14AF0E123B14123A81
:103B7A00FA7FA1123B14123B36123B51123B082228
:103B8A008E518F528D02123AFA7FA0123B14E4FF33
:103B9A00FCAE517DFF120262123B14AF52123B146B
:0C3BAA008A07123B14123B081208782214
:063BB600C295D2977C00CD
:103BBC00C296EF30E002D296D295EFC313FFBC074A
:103BCC00028D07C2950CBC10E7C297D295D29622F3
:103BDC008B0D8A0E890F7F8EE4FD123BB6D2977F38
:033BEC00BF7E0099
:103BEF00C296EF30E002D296D295EFC313FFC29583
:063BFF000EBE08EC7E0082
:0B3C0500AB0DAA0EA90FE4120354FD42
:103C1000E430960104FFD2958D040C8002C333DC9E
:103C2000FCFFAB0DAA0EA90F1203704F120354C272
:103C3000950DBD08DB050FE50F7002050E0EBE08E1
:0F3C4000C47F8E7D80123BB6C297D295D296225A
:103C4F008F02EF3395E0FEE4FC7D0A12023A8C55A9
:103C5F008D56E556540FF556E4F555EAFF3395E0CA
:103C6F00FEE4FC7D0A12023AEF3395E0FEE4FC7DA0
:103C7F000A12023A8C578D58E558540FF558E4F54F
:103C8F0057E558AA5775F004C333CA33CAD5F0F8AD
:103C9F008A57F558E55854F0F558E4F557E5584567
:0C3CAF0056F556E5574555F555AF562221
:103CBB00EF33EF540FF55AE4F55985595B855A5C90
:103CCB00EF54F075F004A2E713D5F0FAFB3395E04F
:103CDB00F5598B5AE55A540FF55AE4FEF559AC5980
:103CEB00AD5A7F0A120226EF255CF55CEE355BF5CB
:043CFB005BAF5C223D
:1004A50092D61582C582B4FF021583C582A2D622D3
:0300000002043FB8
:10043F0075815DE478FFF6D8FD903AE8E493700299
:10044F00804EC31392D5C31392D1FFA3E493F8B098
:10045F00D5402130D505E4A393F5A0E420D102A324
:10046F009320D507F608DFF3A380D1F208B800F682
:10047F0005A080F2E8030303541F2420F9E8540772
:10048F00F8E4D333B80002800333D8FD47F780D8A0
:06049F0075A0FF021BBB6B
:10035400CB30E11520E00FC083C08289828A83CB31
:0C036400F0D082D08322CBF322CBF72212
:10037000EB30E11320E00EC083C08289828A83E0E3
:10038000D082D08322E3226405700EC083C08289AC
:0B039000828A8393D082D08322E72270
:10039B0088F0A8817404C0E0C0F018E6C0E008E65D
:1003AB00C0E00886F018188001A3E0C608D5F0F964
:0203BB00F82226
:0C03BD00E0A3FCE0A3FDE0A3FEE0FF22B3
:1003C90075F004AA83AB82D083D082800508B80077
:1003D900010CE493A3CAC583CACBC582CBF0A3CAD7
:0F03E900C583CACBC582CBD5F0E3C082C08322C7
:1003F800BB02030204274003BB040302041B40039F
:0604080002040E020433A1
:0D040E00E92582F582EA3583F583E4932227
:0C041B008883E92582F8E6C8C583C82262
:0C042700E92582F582EA3583F583E022A6
:0C0433008883E92582F8E2C8C583C8224E
:10005100E58124FEF9EFF887F0A4FFE7C5F0CEFAB9
:10006100A42EFE500205F0E7C5F0CDFBA42DFD50F6
:100071000205F0E7C5F0CCA42CFC19E7601C88F060
:10008100A42EFEE5F03DFD50010C87F0EAA42DFD04
:10009100E5F03CFC87F0EBA42CFC19E7600F88F03D
:1000A100A42DFDE5F03CFC87F0EAA42CFC19E760E7
:0900B1000588F0A42CFC020336C2
:1000BA00E58124FEF9C2D1EC7060ED4E7076EFB4A2
:1000CA001000402C7B007A20C3E733F719E733F797
:1000DA0019E733F719E733F7090909EB33FB92D527
:1000EA00C3EB9F20D5024002FB07DADC8BF08021AC
:1000FA00191919E78FF084F7097B03E5F0D7C7C40C
:10010A008FF084C4C7C445F0C48FF084D709DBEBF1
:10011A0019E4FAFBC5F0F8020189E4C7FB19E4C740
:10012A00F819E4C7F5F019E4CBC7FA090909758388
:07013A000802015102014817
:10014100E58124FEF9C2D1E4F8F5F0FAFB758320CC
:10015100C3758204E733F719D582F909090909E85A
:1001610033F8E5F033F5F0EA33FAEB33FBE89FE5DA
:10017100F09EEA9DEB9C400D07CBE89FC8E5F09E01
:10018100C5F0EA9DCAD583C8E7FF19E7FE19E7FD67
:0C01910019E7FC30D1031201E70203362D
:0F019D0012034580021819E657F6DAF902033605
:1001AC00120345C380021819E637F6DAF902033652
:1001BC00120345C380021819E796F6DAF9020336E2
:1001CC0074FB2581F87904E6C0E008D9FA1200BA6C
:0B01DC00EBFCEAFDAEF0E8FF0203368A
:0E01E700C3E49FFFE49EFEE49DFDE49CFC2229
:1001F500E58124FEF9C2D1EC30E705D2D11201E741
:10020500191919E730E70FB2D10909097A04C3E4CE
:0C02150097C719DAFA090909090200C1AB
:10022100E0A3FEE0FFEF8DF0A4CFC5F0CCA42CFC41
:09023100EE60038DF0A42CFE2206
:10023A00C2D1C2D5EE30E707D2D1D2D51202E7EC4D
:10024A0030E705B2D11202EF12026230D103120274
:10025A00E730D5031202EF22BC000EBE0032EF8D4A
:10026A00F08420D226FFADF0227B0075F008EF2F34
:10027A00FFEE33FEEB33FBEE9DEB9C4005FBEE9D60
:10028A00FE0FD5F0E9E4CECDCBCC227EFF7FFF2254
:10029A00EDB410005022EE8DF084FEEF54F045F0DC
:1002AA00C48DF084C4FCEF540FC445F0C48DF084AF
:1002BA00FFADF0E4CC4FFF22EE8DF08420D2CC7E4D
:1002CA0008CEC5F0CDCBEF2FFFED33FD10D7079B3E
:1002DA005005D5F0F1229BFD0FD5F0EA22C3E49F29
:0D02EA00FFE49EFE22C3E49DFDE49CFC2287
:1002F700E58124FBF9EC6480FCE76480F78005E581
:100307008124FBF9E5D054184404F87A04E687F011
:10031700B5F00A0908DAF6E4FEFF020336E45004F2
:07032700FE0480F5F480F1F3
:10032E0074F9800674FA800274FCD083D082258121
:07033E00F581C082C083229B
:10003C00E5F06010C3EF33FFEE33FEED33FDEC3330
:05004C00FCD5F0F022DC
:10002600E5F06011ECA2E713FCED13FDEE13FEEF15
:0600360013FFD5F0EF22DC
:013AF90000CC
:0F034500E5D054182407F8E58124FCF97A042246
:00000001FF
